:100000000C9434000C943E000C943E000C943E0082
:100010000C943E000C943E000C943E000C943E0068
:100020000C943E000C943E000C943E000C943E0058
:100030000C943E000C943E000C943E000C943E0048
:100040000C943E000C943E000C943E000C943E0038
:100050000C943E000C943E000C943E000C943E0028
:100060000C943E000C943E0011241FBECFEFD8E04C
:10007000DEBFCDBF0E9440000C9462000C940000D3
:1000800010927A00E4E6F0E080818F6E808314B8ED
:1000900015B817B818B81AB81BB883B7817F846031
:1000A00083BFF89483B7816083BF85B7806685BFBF
:1000B0008F7D85BF7894889583B78E7F83BF80E0DE
:0800C00090E00895F894FFCFD1
:00000001FF
